:020000040800F2
:1000000028050020DD01000853280008A719000872
:1000100051280008E9020008792A000800000000C1
:100020000000000000000000000000005728000849
:100030007503000800000000552800085928000832
:10004000F7010008F7010008F7010008F7010008B0
:10005000F7010008F7010008F7010008F7010008A0
:10006000F7010008F7010008F7010008ED02000899
:10007000F7010008F7010008F7010008F701000880
:10008000F7010008F7010008F7010008F701000870
:10009000F7010008F7010008F7010008F701000860
:1000A000F7010008F7010008F7010008F701000850
:1000B000F7010008F7010008F7010008A919000876
:1000C000F7010008F7010008F7010008F701000830
:1000D000F7010008F7010008F7010008F701000820
:1000E000F7010008F7010008F7010008F701000810
:1000F000F7010008F7010008F7010008F701000800
:10010000F7010008F7010008F7010008F7010008EF
:10011000F7010008F7010008F7010008F7010008DF
:10012000F7010008F7010008F7010008F7010008CF
:10013000F70100080000000000000000F7010008BF
:10014000F7010008F7010008F7010008F7010008AF
:10015000F7010008F7010008F7010008F70100089F
:10016000F7010008F7010008F7010008F70100088F
:10017000F7010008F7010008F7010008000000007F
:1001800000000000F701000800000000000000006F
:10019000F70100080000000000000000F70100085F
:1001A000000000000000000000000000F70100084F
:1001B000F7010008F7010008F7010008F70100083F
:1001C000F7010008DFF810D000F07CF80048004785
:1001D000B92A0008AFF300802805002006488047B0
:1001E00006480047FEE7FEE7FEE7FEE7FEE7FEE71C
:1001F000FEE7FEE7FEE7FEE7F9280008C501000874
:100200002DE9F05F0546002092469B46884606464B
:10021000814640241BE0284641464746224600F0DE
:1002200041F853465A46C01A914110D31146184618
:10023000224600F028F82D1A67EB01084F462246A7
:100240000120002100F01FF817EB00094E41201E8D
:10025000A4F10104DFDC484631462A464346BDE8A6
:10026000F09FD2B201E000F8012B491EFBD270478B
:100270000022F6E710B513460A4604461946FFF772
:10028000F0FF204610BD202A04DB203A00FA02F1DC
:10029000002070479140C2F1200320FA03F3194374
:1002A00090407047202A04DB203A21FA02F0002116
:1002B000704721FA02F3D040C2F120029140084376
:1002C00019467047064C074D06E0E06840F0010310
:1002D00094E8070098471034AC42F6D3FFF776FF56
:1002E0001C2B00083C2B0008FEE70000014800F032
:1002F000C1B800008000002001681823CAB2103A7B
:10030000B2FBF3F2054B6FF30901032A9B5CC36553
:1003100000D9091D8165084670470000FC2A0008C5
:1003200010B5014600208B698A6A4FF0C07453B142
:10033000B3F5005F15D072B1012A0CD0022A0AD0A1
:10034000032A09D104E01AB1012A06D0022A03D1F6
:10035000C96AC90100D5012010BDC96AA142FAD0FD
:1003600010BD002AF7D0012AF2D0022AF3D0032AC6
:10037000F3D010BD704772B6FEE770B54379012B1C
:100380001CD0012646710223037105682B6802F018
:10039000100440F6FE72A2409343D1E900210A43C3
:1003A000A2401A432A6001680A68C023A3409A4306
:1003B0000A60067100214171084670BD022070BDBF
:1003C00070B5040003D02079002510B105E00120AC
:1003D00070BD6571204600F007F80220207125618C
:1003E00001202071002070BD10B586B00446142194
:1003F0006846FFF73DFF1149206888421CD110482C
:100400000021026842F000520260006800F00050D3
:1004100005900B481038026842F001020260006843
:1004200000F001000590102000900320CDE90101AB
:100430006946044800F058F906B010BD0074004049
:10044000403802400000024090F83510022903D0E5
:100450008021416501207047052180F83510006832
:10046000016821F0010101600020704790F835001B
:10047000704700002DE9F84304464FF00009CDF81D
:10048000009063484FF41651A56D0068B0FBF1F77A
:100490002E6894F85C10082000FA01F131420FD068
:1004A00021680A6852070BD50A6822F004020A6024
:1004B00094F85C108840A860606D40F001006065B1
:1004C00094F85C104FF0010808FA01F0304208D0AF
:1004D00021684969090604D5A860606D40F00200F2
:1004E000606594F85C1004208840304208D0216890
:1004F0000968890704D5A860606D40F00400606554
:1005000094F85C1010208840304218D021680968A7
:10051000090714D5A86020680168490304D500685C
:10052000000308D5A16C07E00168C90503D4016880
:1005300021F008010160216C09B12046884794F838
:100540005C1020208840304231D021680968C906FB
:100550002DD5A86094F8350005282068016806D0DC
:10056000490347D5006800031DD4616C1CE021F0ED
:10057000160101602068416921F080014161206C11
:1005800008B9A06C20B12068016821F00801016061
:1005900094F85C103F208840A86084F8349084F878
:1005A0003580216D1FE0E16B09B120468847606D01
:1005B00000282BD0606DC00714D0052084F83500CA
:1005C0002068016821F0010101600098401C009042
:1005D000B84203D820680068C007F6D184F8349088
:1005E00084F83580E16C002910D001B02046BDE8C8
:1005F000F04308470168C905D5D4016821F010010E
:10060000016084F8349084F83580CCE7BDE8F88345
:10061000140000202DE9F041044600F059F9064687
:100620005CB1002584F83450022084F8350020683D
:10063000016821F0010101600DE00120BDE8F081B9
:1006400000F046F9801B052805D9202060650320AD
:1006500084F83500F2E720680068C007F0D122680E
:10066000116820480140D4E901031843D4E9033656
:100670003343184363691843A3691843E369184374
:10068000236A18430843616A042903D1D4E90B1390
:1006900019430843106020684069666A20F007012A
:1006A00030460E43012704280CD1A06A0643E06AB5
:1006B00040B12046FFF734FE20B14020606584F849
:1006C0003570BAE7206846612046FFF715FE94F8BA
:1006D0005C203F2191408160656584F83570002081
:1006E000ACE700003F8010F02DE9F84FDFF8ACA137
:1006F000002201240AF1040B03254FF00F090BF12E
:10070000040E00BF0B6804FA02F63340B34272D104
:100710000F7907F00307012F01D0022F16D1876848
:100720004FEA420805FA08FC27EA0C07D1F80CC08A
:100730000CFA08FC4CEA070CC0F808C04768B7433D
:100740000E79C6F3001696403E4346600E79F64396
:10075000B6070AD0C6684FEA420C05FA0CF7BE434A
:100760008F6807FA0CF73743C7600E7906F0030667
:10077000022E10D1D60800EB8608D8F82060570763
:100780004FEAD76C09FA0CF7BE430F6907FA0CF76A
:100790003743C8F8207006684FEA420C05FA0CF798
:1007A000BE430F7907F0030707FA0CF737430760DA
:1007B0004E68F6006BD53A4E376847F4804737608D
:1007C000366822F0030706F480460096354E07EBA4
:1007D000060CDCF8086897074FEA177809FA08F75B
:1007E000BE43314FB84201D100271FE02F4FB8421E
:1007F00002D101271AE04AE02D4FB84201D1022769
:1008000014E02C4FB84201D103270FE02A4FB84221
:1008100001D104270AE0294FB84201D1052705E09C
:10082000274FB84201D1062700E0072707FA08F74B
:100830003743CCF80878DAF800605746D1F804C09E
:100840009E435FEACC3C00D51E433E60DBF800606F
:100850005F46D1F804C09E435FEA8C3C00D51E433E
:100860003E60DEF800607746D1F804C09E435FEA40
:10087000CC2C00D51E433E60084F0C373E68D1F8A3
:1008800004C09E435FEA8C2C00D51E433E60521C80
:10089000102AFFF437AFBDE8F88F0000003C01409C
:1008A0004438024000300140000002400004024091
:1008B00000080240000C02400010024000140240F8
:1008C000001802400AB1816170470904FBE700008B
:1008D000014880687047000008000020704770479A
:1008E0002DE9F041026800245168C76A90F83E5033
:1008F00090F83D60102D1CD0402D1AD0036C002BB9
:100900007ED053694FF02805DB439F0779D4CF434E
:10091000BF0576D4016C01B1946990F83D30002197
:100920009D430B466ED0C91E516180F83C30BDE836
:10093000F081946953694FF42A0CDB435FEAC37E6C
:100940004FF02A4604D06745F1D0B742EFD010E00F
:10095000CF43BF050DD4C16A614501D1012103E038
:10096000C16AB14201D10821C162BDE8F04101F084
:1009700041BB1E0715D4CE43B60512D4416CC9B293
:100980001161416B09B1C96B29B9816B0029CED0C6
:10099000C96B0029CBD00068416841F40061416017
:1009A000C5E79E0706D4CE43B60503D4BDE8F041A3
:1009B00001F094BAE443526864074FEA02521BD430
:1009C000002AB4DB1A0608D4CA43520505D45A07D4
:1009D00005D5BDE8F04101F025BA5A07A7D4C943AF
:1009E0008905A4D4102D03D0BDE8F04101F048BB27
:1009F000BDE8F04101F0DCB9002A98DB5A0602E0BC
:100A000014E028E014E008D4CA43520505D45A077C
:100A100005D5BDE8F04101F057B95A0787D4C9435D
:100A2000890584D4BDE8F04101F0E5B8946968E730
:100A3000556825F480655560E243540700D50121CF
:100A4000120601D5828900E0028B80F83C3092B218
:100A5000FFF745FF6BE7DC0606D4CC43A40503D4BF
:100A6000BDE8F04101F02EBC212E27D0292E25D043
:100A70005C0655D4CC43640552D45B0752D590F83C
:100A80003D10438D002B8BD01269436A1A70426A65
:100A9000521C4262428D521E4285428D002AD9D19B
:100AA0002A29D7D101684A6822F480624A6022214B
:100AB000016380F83D5000F0FDFA38E71C0623D4AE
:100AC000CC43640520D45B0720D590F83D10438DBE
:100AD000002BBFD0436A1B781361426A521C4262EA
:100AE000428D521E4285428D002AB3D12929B1D1AF
:100AF00001684A6822F480624A602121016380F81B
:100B00003D5000F0D8FA12E75B07A3D4C94389052A
:100B1000A0D4418D00299DD0416A097811610AE075
:100B20005B0797D4C943890594D4418D002991D09E
:100B30001169426A1170416A491C4162418D491E26
:100B40004185F4E67047000070B5040025D094F8A4
:100B50003D00002520B984F83C50204600F052FAB0
:100B6000242084F83D002068016821F00101016023
:100B70002068016841F4004101602068016821F4A7
:100B80000041016000F004FC4D4A6168914201D8C7
:100B90004C4900E04C49884201D2012070BD4B49CC
:100BA0002368B0FBF1F15E6826F03F060E435E60FD
:100BB0006368934206D94FF4967359434FF47A739E
:100BC000B1FBF3F12368491C1E6A26F03F0631434E
:100BD00019626168914210D84900401EB0FBF1F2E1
:100BE000521CC2F30B02042A01D2042022E0B0FB03
:100BF000F1F0401CC0F30B001CE0A268F2B301EB63
:100C0000C10303EB0116431EB3FBF6F35B1C43F475
:100C100080431B0549D092B301EBC10202EB0111E5
:100C2000401EB0FBF1F0401CC0F30B0040F48040CC
:100C300040F400402168CA694CF6FF739A431043A0
:100C4000C861D4E9071001432068026822F0C0029D
:100C500011430160D4E9030101432068826848F22E
:100C6000FF339A4311438160D4E9050108432168A9
:100C7000CA6822F0FF021043C86001E00EE016E0EF
:100C80002068016841F0010101602564202084F89A
:100C90003D00256384F83E50002070BD01EB410605
:100CA000431EB3FBF6F35B1CB3E70120C2E701EB85
:100CB0004101401EB0FBF1F0401CC0F30B00B7E750
:100CC000A086010080841E0000093D0040420F0004
:100CD0007047704770477047704700002DE9FF4F1D
:100CE00083B09A46DDE9119793460446DDF84080CB
:100CF000FFF7EEFD054694F83D00202870D119233A
:100D0000012271492046009501F0B0FB0028F5D181
:100D100094F83C00012863D0012084F83C0020684E
:100D20000168C90703D1016841F001010160206831
:100D3000016821F400610160222084F83D00402018
:100D400084F83E0000262664C4F82480A4F82A9083
:100D5000608D20855D48E062CDE9007553465A46B6
:100D60002046049901F0DCF900287CD1208DD0B117
:100D7000012821D00228206824D041698069009090
:100D8000208D032869D801282BD0514902283B46E1
:100D90004FF00002009559D08846204601F066FBCE
:100DA000002860D13CE020684169816900910168B8
:100DB00041F40071016077E02068016821F48061EE
:100DC0000160F0E7016821F480610160206801683A
:100DD00041F400610160206841698069009063E02E
:100DE0006FE02A463946204601F0BFFB98BB2068D9
:100DF0000069616A08704EE02068016841F4007182
:100E0000016020680069616A0870606A401C606265
:100E1000218D491E2185618D491E6185216838E03B
:100E20002068016821F48061016020680069616ABE
:100E30000870606A401C6062208D401E2085608DB5
:100E4000401E60853B46002241460095204601F049
:100E50000DFB00B9D0E706E0FFE72A4639462046F9
:100E600001F083FB18B1012007B0BDE8F08F2068C6
:100E70000069616A0870606A401C6062218D491EC9
:100E80002185618D491E618521684A69D2435207D7
:100E90000AD409690170606A401C6062208D401E9E
:100EA0002085608D401E6085208D00287FF468AF0E
:100EB000202084F83D0084F83E6084F83C600020E7
:100EC000D2E70220D0E70000020010000000FFFF80
:100ED000040001002DE9FF4F83B09A46DDE9119728
:100EE00093460446DDF84080FFF7F2FC054694F88F
:100EF0003D0020287FD1192301224049204600953A
:100F000001F0B4FA002876D194F83C00012872D0A0
:100F1000012084F83C0020680168C90703D10168FA
:100F200041F0010101602068016821F40061016065
:100F3000212084F83D00402084F83E0000262664ED
:100F4000C4F82480A4F82A90608D20852C48E062A3
:100F5000CDE9007553465A462046049901F05EF9E2
:100F600070B930E02A463946204601F031FB58B1CD
:100F7000206C042804D12068016841F400710160EC
:100F8000012007B0BDE8F08F606A21680078086131
:100F9000606A401C6062218D491E89B22185628D84
:100FA000521E628522685369DB435B070BD469B12B
:100FB00000781061606A401C6062208D401E2085B0
:100FC000608D401E6085208D0028CBD12A46394691
:100FD000204601F025FA0028CAD154F83D0B0168DB
:100FE00041F400710160202004F81E09E67766775D
:100FF0000020C6E7FFE70220C3E700000200100060
:101000000000FFFF70B586B0064614216846FFF762
:101010002FF923493068884240D1224800250168D1
:1010200041F0020101600068694600F0020005908D
:10103000C020009012200190012002900320039014
:10104000042004901848FFF74FFB16481030016841
:1010500041F4001101600068154C00F40010059087
:10106000124820604005C4E90105C013C4E90350DB
:1010700080106561C4E90650256220466562FFF76D
:10108000C9FA08B1FFF777F9B463002211461F20AF
:10109000A66300F079F81F2000F068F806B070BD74
:1010A000005400403038024000040240106002400A
:1010B0008000002070477047024881680278114420
:1010C00081607047080000200B4810B5016841F4AA
:1010D00000710160016841F480610160016841F4C0
:1010E00080710160032000F06FF8002000F006F826
:1010F00000F024F8002010BD003C024070B50D4DFA
:1011000004464FF47A712878B1FBF0F00A49096877
:10111000B1FBF0F000F074FB48B9102C07D20022AC
:101120002146501E00F030F800206C6070BD012098
:1011300070BD000008000020140000200A4808B517
:10114000016841F480410160006800F48040009033
:101150000548001F016841F080510160006800F0FF
:101160008050009008BD000044380240002809DB90
:1011700000F01F02012191404009800000F1E020B1
:10118000C0F8001170470000F0B40E4B1B680C460D
:10119000C3F30223C3F10705042D00D90425191D4B
:1011A000072901D2002300E0DB1E012606FA05F123
:1011B000491E214099409E40761E16403143F0BCA6
:1011C00001F05BBC0CED00E0064900F00702086886
:1011D0004FF6FF03184040EA0220034A104308601C
:1011E000704700000CED00E00000FA052DE9F8431F
:1011F0001748016841F0805101600068154F00F008
:101200008050012600903E64FFF762FB05464FF4D4
:101210007A78114C05E000BFFFF75AFB401B4045B0
:101220000DD86068C003F7D57E64FFF751FB054613
:10123000464607E0FFF74CFB401BB04202D90320B3
:10124000BDE8F88360688003F4D50020F8E700006B
:101250004038024000000E42007000402DE9F04787
:101260000E46050065D0DFF81481D8F80000F7B20B
:1012700000F00F00B04207D288F80070D8F80000E4
:1012800000F00F00B04254D128683D4C810712D5C0
:10129000400703D5206840F4E0502060287800071C
:1012A00003D5206840F4604020602068A96820F0E1
:1012B000F000084320602878C0072DD030496868C6
:1012C0000839012812D0022813D0032811D0096848
:1012D000890700292DDA216821F0030101432160EB
:1012E000FFF7F6FA814641F2883A0EE00968890371
:1012F000EFE709688901ECE7FFF7EAFAA0EB0901DB
:10130000514502D90320BDE8F0872068696800F0E4
:101310000C00B0EB810FEFD1D8F80010404601F07F
:101320000F01B14207D90770006800F00F00B0420A
:1013300001D00120E7E72878400705D52068E96853
:1013400020F4E050084320602878000706D5206884
:10135000296920F4604040EAC100206000F038F8BC
:101360002168084AC1F30311515CC840064908606E
:1013700006480068FFF7C2FE0020C4E7003C0240B8
:1013800008380240042B0008140000200C00002044
:101390000448054900680968044AC1F38221515C88
:1013A000C84070471400002008380240142B000881
:1013B0000448054900680968044AC1F34231515C98
:1013C000C84070471400002008380240142B000861
:1013D000224810B5006810F00C02214815D02149B0
:1013E000042A11D01D4C241F082A0FD00C2A0CD11E
:1013F0002268236802F03F025B0221D52068C0F317
:101400008810A0FB010120E0084610BD2268236877
:1014100002F03F025B0205D52068C0F38810A0FBF4
:10142000010104E02168C1F38811A1FB0001002340
:10143000FEF7E6FE2168C1F30141491C49000AE0BC
:101440002168C1F38811A1FB00010023FEF7D8FE3B
:101450002168C1F30271B0FBF1F010BD0838024001
:101460000024F40040787D012DE9F84F04007DD080
:10147000DFF878B32078ABF10407C007A7F10405C3
:1014800050D0DBF800105846C1F3810101290FD07C
:101490000168C1F38101022902D13968490207D4E8
:1014A0000068C0F38100032809D13868400206D5DE
:1014B0002868800336D560680028D8D032E060689C
:1014C000B0F5803F10D0B0F5A02F286810D020F4E0
:1014D00080302860286820F4802028606068A0B1EF
:1014E000FFF7F6F906460CE0286840F48030F4E790
:1014F00040F480202860F7E7FFF7EAF9801B6428B2
:1015000076D828688003F7D50CE0FFF7E1F90646A6
:1015100005E000BFFFF7DCF9801B6428F0D82868DD
:101520008003F7D42078DFF8C89280074FF0000AD4
:1015300044D5DBF80010584611F00C0F0FD00168AD
:10154000C1F38101022902D13968490207D5006837
:10155000C0F3810003280AD13868400207D4286804
:10156000800715D5E068012800D111E03AE1E06874
:10157000B0B10120C9F80000FFF7AAF9064604E05F
:10158000FFF7A6F9801B0228BAD828688007F7D58C
:101590002868216920F0F80040EAC10028600DE0C9
:1015A000C9F800A0FFF794F9064604E0FFF790F9A8
:1015B000801B02281CD828688007F7D420780007F1
:1015C00027D5DFF828828B48616908F16C0881B162
:1015D00001210160FFF77CF9064604E0FFF778F986
:1015E000801B022804D8D8F800008007F6D510E048
:1015F00089E0C0F800A0FFF76BF9064605E000BFE0
:10160000FFF766F9801B02287DD8D8F80000800714
:10161000F6D42078400769D574484FF00008383078
:101620000068C0000BD471483830016841F0805127
:10163000016000684FF0010800F0805000906E4E8D
:101640003068C00511D4306840F480703060FFF716
:101650003FF9009006E000BFFFF73AF90099401A01
:10166000022850D83068C005F6D5604EA0686836AC
:1016700001280FD00528306810D020F0010030601C
:10168000306820F004003060A068B8B1FFF720F99E
:1016900000900FE0306840F00100F4E740F00400F3
:1016A0003060F7E7FFF714F90099411A41F28830EA
:1016B000814264D830688007F4D50EE0FFF708F95E
:1016C000009007E0FFF704F90099411A41F28830D1
:1016D000814254D830688007F4D4B8F1000F05D0A7
:1016E00042483830016821F080510160A069A8B3F8
:1016F000DBF80010C1F38101022947D00228C9F8A4
:1017000060A005D000E03AE0FFF7E2F8044639E0D7
:10171000FFF7DEF8064604E0FFF7DAF8801B022840
:101720002DD828688001F7D4F4E907010843E1685F
:10173000324A490802EB0141A26841EA821108439A
:10174000217C40EA0160217D40EA0170386001207F
:10175000C9F86000FFF7BCF8044606E044E000BFAB
:10176000FFF7B6F8001B022809D828688001F7D5D2
:101770003AE000BFFFF7ACF8001B022802D90320B3
:10178000BDE8F88F28688001F4D42DE00128F7D057
:101790003868E26900F48001914223D1226A00F0A6
:1017A0003F0191421ED147F6C071626A0140B1EB20
:1017B000821F17D1A26A4FF0FF3300F4403103EBD0
:1017C0005202B1EB024F0DD194F82C2000F0706161
:1017D000B1EB026F06D194F8301000F0E040B0EBAE
:1017E000017F01D00120CBE70020C9E70838024083
:1017F00000004742800E4742007000400000FFFF9B
:1018000010B5401EB0F1807F01D3012010BD4FF014
:10181000E02460610F21601701F02FF90020A06122
:1018200007202061002010BD70B5040004D094F89A
:101830003D00002510B106E0012070BD84F83C5049
:10184000204600F023F8242084F83D002068C16879
:1018500021F40051C160204601F056F8206801696A
:1018600021F4904101612068416921F02A01416120
:101870002068C16841F40051C1602564202084F8CB
:101880003D0084F83E00002070BD000010B586B019
:10189000044614216846FEF7EBFC13492068884291
:1018A0001FD11248016841F400210160006800F472
:1018B000002005900D481038016841F001010160D9
:1018C0000068022100F0010005900320CDE900012D
:1018D0000121CDE902100820049069460448FEF772
:1018E00003FF06B010BD0000004C0040403802402D
:1018F000000002402DE9F843044690F83D001F46E1
:1019000016460D4620284CD1C5B1BEB194F83C0016
:10191000012846D0012084F83C004FF00008C4F8AC
:101920004080212084F83D00FEF7D2FFA684814646
:10193000E684A068B0F5805F03D004E00120BDE834
:10194000F883206928B12E465FF0000584F83C80BA
:101950000EE00026FAE78021204601F05BF8A0B9EE
:10196000AEB116F8010B21684860E08C401EE0849F
:10197000E08C4B464FF0000200970028EBD14FF06F
:101980004001204601F046F830B10320D7E735F892
:10199000020BC0F30800E6E7202084F83D00002099
:1019A000CDE70220CBE7FEE70148FEF799BF000034
:1019B0002C00002038B5806B002190F83D202B4B87
:1019C00046F2A8141B68B3FBF4F3C3EBC30303EBA9
:1019D000830300933BB15B1E009303681B689B0568
:1019E00005D5009BF6E7036C43F020030364436BCB
:1019F00003B1D963836B03B1D96303681C6824F412
:101A000080641C604185436B03B11965836B03B12E
:101A1000196503681C6824F001041C6090F83D40BF
:101A20002023602C0BD0282434EA02020FD080F847
:101A30003D3080F83E1000BFFFF784F838BD80F8D5
:101A40003D3080F83E100164FEF748FF38BD026863
:101A5000136843F0010313600268136843F4806362
:101A60001360016380F83D40E6E7000014000020A9
:101A700070B5044690F83D0094F83E10102901D04E
:101A8000402906D1222804D121680A6822F4006284
:101A90000A60282131EA00024FF000054FF02006CD
:101AA00026D021684968090505D4602803D084F848
:101AB0003D6084F83E50256320684168090537D5AC
:101AC000416821F400614160606B90F835203C4929
:101AD000012A11D00165606BFEF7B6FC38B32068AF
:101AE000016821F00101016084F83D60606B1CE039
:101AF000256384F83D10DFE7A06B0165A06BFEF75E
:101B0000A3FCA0B120684169C943490605D4006916
:101B1000616A0870606A401C60622068016821F098
:101B20000101016084F83D60A06B016D884710E001
:101B300094F83D10602910D04169C943490605D485
:101B40000069616A0870606A401C60622046FEF7A6
:101B5000F9FF206CC1071CD115E084F83D602564B5
:101B60004169C943490605D40069616A0870606A21
:101B7000401C60622068016821F00101016020467C
:101B8000FEF7ACFEE5E7810703D4410701D4000767
:101B900004D52068416821F4E061416094F83D007B
:101BA000216C49070BD5282809D10648E062256336
:101BB00084F83D6084F83E502046FFF789F870BDF8
:101BC000B51900080000FFFF01684A69D2435205B9
:101BD0000FD46FF480624A61002140F8301F202248
:101BE00042738173026942F00402026101730120B1
:101BF00070470020704710B5C26A438D0168042BFE
:101C000006D0438D032B08D0438D022B1DD012E04C
:101C10004A6822F480624A600CE04B6823F48063D7
:101C20004B60042A06D0022A04D001680A6822F414
:101C300080620A6001680969426A1170416A491C40
:101C40004162418D491E418510BD012A30D0102AC4
:101C50002ED0042A30D0022A2ED00A6842F4007214
:101C60000A6001680969426A1170416A491C41624F
:101C7000428D521E4285026812690A70416A491CEF
:101C80004162418D491E418501684A6822F44072D3
:101C90004A60202180F83D1090F83E200021402A23
:101CA00080F83E100CD012210163FFF712F810BD2E
:101CB0000A6822F48062D3E70A6842F48062CFE7C0
:101CC0000163FFF708F810BD38B590F83D102229E0
:101CD00014D1418D032912D901680969426A117032
:101CE000416A491C4162418D491E4185418D03294C
:101CF00004D10068416821F48061416038BDC26A46
:101D0000022AFBD0012901D00029F7D1274946F248
:101D1000A81300220968B1FBF3F101EB81010091E6
:101D200001682023009C641E009422D00C68A40546
:101D3000F8D40C6824F480640C6001684C6824F4C6
:101D4000E0644C6001680969446A2170416A491C79
:101D50004162418D491E418580F83D3090F83E102A
:101D600080F83E2040291DD012210163FEF7B1FF0B
:101D700038BD046C44F0200404644C6824F4E0642E
:101D80004C6001680969446A2170416A491C4162DA
:101D9000418D491E418580F83D3080F83E20FEF798
:101DA000D1FE38BD0263FEF796FF38BD1400002057
:101DB00010B5C16A90F83D20212A0BD1428D52B155
:101DC000416A026809781161416A491C4162418D8A
:101DD000491E418510BD00222023082910D020294A
:101DE0000ED011F5803F0BD001684C6824F4E064FC
:101DF0004C601121016380F83E2080F83D300EE0F8
:101E000001684C6824F4E0644C6001680C6844F498
:101E100000740C60026380F83D3080F83E20FEF7CD
:101E200059FF10BD10B590F83D1090F83E30C26AD1
:101E3000048DB4B1212903D0402B11D122290FD117
:101E4000418DE1B390F83E10402942D0416A0268CA
:101E500009781161416A491C4162418D491E4185E1
:101E600010BD2129E8D120230021082A13D0202ADF
:101E700011D012F5803F0ED00268546824F4E0645B
:101E800054601122026380F83E1080F83D3000BF9C
:101E9000FEF720FF10BD0268546824F4E06454602B
:101EA0000268146844F400741460016380F83D30E3
:101EB00090F83E2080F83E10402AE9D100E002E090
:101EC000FEF70AFF10BD0068416821F4806141609F
:101ED00010BDBDE8104000F0D3B8000078B590F810
:101EE0003E50C26A036B90F83D6000240168222EC8
:101EF0007AD1066D0EB9402D76D0056D1DB90569F4
:101F0000B5F5404F09D0458D05B3468D384D012EAE
:101F10000ED0438D022B3AD05DE04A698A69009267
:101F20000A6842F480720A60016D491C016578BD3F
:101F3000AA4213D10A6822F480620A6001684A68E2
:101F4000120503D50A6822F4806216E04A698A699C
:101F500000920A6842F400720A6039E0082A10D040
:101F6000202A0ED0122B0AD0042A03D0022A01D034
:101F7000102AE7D10A6842F480620A6024E0012A4C
:101F8000E0D00A6822F480620A600168DEE7042A71
:101F900021D0022A1FD0102A1DD00B6823F48063A1
:101FA0000B6001680B6843F400630B6001684B68C9
:101FB0001B0509D5AA4212D0012A10D0082A0ED03A
:101FC000102A0CD0202A0AD001684A698969009138
:101FD000046578BD08E00B6843F48063E5E74A6870
:101FE00042F480524A60EFE7486988690090F0E760
:101FF0000000FFFF90F83E10402910D00169B1F5B4
:10200000804F19D0016DA9B3016D012910D1416C28
:102010005FF0F10201F4407142EAD11106E0016D76
:102020000029416C05D0C9B241F00101006801618D
:10203000704701F0FE01F9E790F83D102129416C4D
:1020400009D0C9B241F0010102681161416B29B1A7
:10205000C96B49B902E001F0FE01F5E7816B002987
:10206000E6D0C96B0029E3D00068416841F4006103
:1020700041607047FFE7416CF02201F44071CBE70B
:1020800010B590F83D10026D22B3026D012A2FD0D9
:10209000026D022A1DD1222931D0428D0AB1212997
:1020A00033D0428D002A14D1212912D101684A6807
:1020B00022F4E0624A6001680A6842F400720A6031
:1020C00000210163202280F83D2080F83E10FEF7B9
:1020D00003FE10BDC16C0129816C02D0C1F3072140
:1020E00008E00268C9B21161016D891C016510BD6B
:1020F000816CC9B202681161016D491CF6E7006884
:10210000016841F48071016010BD416A026809787C
:102110001161416A491C4162418D491E418510BDD2
:102120002DE9F84F0446006889460B9D01689846E2
:10213000174641F4806101602068016841F48071B4
:10214000016000954FF0011B0022594620460A9B72
:1021500000F08CF94FF4007A40B120680068C005A7
:1021600001D5C4F840A00320BDE8F88F216809F02C
:10217000FE0008612B46284920460A9A00F0AAF979
:10218000F0BB20684169806900902A4620460A9980
:1021900000F01EFA40B1206C04283AD12068016892
:1021A00041F40071016034E0FEB2B8F1010F09D0D2
:1021B0002168380A08612A4620460A9900F008FA80
:1021C0000028E8D1206806612A4620460A9900F0D6
:1021D000FFF90028DFD12068016841F480710160B7
:1021E00000950022594620460A9B00F03FF900283E
:1021F000B3D1216809F0FF0040F00100086100E060
:1022000007E02B46044920460A9A00F063F90028AB
:10221000AAD00120A8E70000020001002DE9F84340
:10222000044600680D46DDE90897016898461646A1
:1022300041F4807101604B4600224FF001112046AD
:10224000009700F013F948B120680068C00502D576
:102250004FF4007020640320BDE8F883216805F086
:10226000FE0008613B464A461549204600F032F917
:1022700088B920684169806900903A4649462046FD
:1022800000F0A6F948B1206C042804D12068016848
:1022900041F4007101600120DEE7F5B2B8F1010FF1
:1022A00009D02168300A08613A464946204600F0C4
:1022B0008FF90028E7D1206805610020CCE70000F5
:1022C00002000100F8B590F83D60044600684168DE
:1022D00021F4E061416020680025416900910168B6
:1022E00041F0010101602068016821F48061016012
:1022F00020684168090520D5474F222E48D02A2E54
:1023000046D0616B096849686185618D19B1216C9E
:1023100041F004012164416821F400614160606B77
:10232000FEF7A4F8012808D0606B0765606BFEF724
:102330008BF810B1606B016D8847608D08B3206821
:102340004169C943490708D40069616A0870606A35
:10235000401C6062608D401E608520684169C943F1
:10236000490608D40069616A0870606A401C6062AE
:10237000608D401E6085608D18B1206C40F00400B7
:102380002064206C00B32046BDE8F840FFF770BB26
:10239000A16B096849686185618D19B1216C41F0B3
:1023A00004012164416821F400614160A06BFEF7E3
:1023B0005DF80128C1D0A06B0765A06BFEF744F85B
:1023C0000028BAD0A06BB6E72A2E06D125632820B4
:1023D00084F83D002046FEF76DFE94F83D10202065
:1023E00028290DD0216B222901D0222E07D1256367
:1023F00084F83D0084F83E502046FEF75BFEF8BDB1
:102400000649E162256384F83D0084F83E50204689
:10241000FEF75EFCF8BD0000B51900080000FFFFE4
:1024200070B516460D4604460DE02046FFF7CCFB7E
:1024300008B1012070BD681C05D0FEF749FA801B69
:10244000A84207D835B120684069C0434007ECD4A2
:10245000002070BD002044F8300F20216173A0736C
:10246000216941F0200121612073E2E72DE9F04765
:102470001E4690460D460446C1F30747DDF82090FE
:1024800008E0701C06D0FEF723FAA0EB0900B0426A
:102490000FD876B12068012F18D0806925EA000096
:1024A0000004000C14D000214145EAD00020BDE812
:1024B000F087002044F8300F20216173A073216958
:1024C00041F02001216120730120F0E74069E5E738
:1024D0000121E9E72DE9F0479A4691460E46044668
:1024E00000254FF02008C1F3074725E02068406928
:1024F000C043400514D42068016841F400710160B4
:1025000021686FF480604861256384F83D8084F819
:102510003E50206C40F00400206484F83C501FE0E2
:10252000B9F1FF3F08D0FEF7D3F9A0EB0A01494506
:102530000CD8B9F1000F09D02068012F13D08069A1
:1025400026EA00000004000C0BD0CFE744F8305F0F
:1025500084F80D80A573206940F020002061257368
:102560000120BDE8F0874069EAE72DE9F041002548
:1025700090460E460446202717E04069C043C00637
:102580000CD454F8301B6FF01000486144F8105917
:102590006777A577206A2062257717E0FEF798F91C
:1025A000A0EB0800B04208D83EB120684169C94399
:1025B0004906E2D40020BDE8F08144F8305F67733B
:1025C000A573206940F02000206125730120F2E707
:1025D00070B516460D4604460DE02046FFF7F4FAA6
:1025E00008B1012070BD681C05D0FEF771F9801B91
:1025F000A84207D835B120684069C0430006ECD432
:10260000002070BD002044F8300F20216173A073BA
:10261000216941F0200121612073E2E72DE9F041B9
:1026200086B080460124642504A88DE83100234645
:102630007522D0214046FEF751FB9DF81000682816
:1026400003D0012006B0BDE8F081002703AE8DF86D
:102650000C70009601236B22D0214046CDE9014544
:10266000FEF738FC07208DF80C0000960123192294
:10267000D0214046CDE90145FEF72CFC8DF80C70C9
:10268000009601231C22D0214046CDE90145FEF7EA
:1026900021FC8DF80C70009601231B22D0214046AE
:1026A000CDE90145FEF716FC8DF80C40009601239C
:1026B0003822D0214046CDE90145FEF70BFC002031
:1026C000C0E700001CB500240C4900940A4801949E
:1026D00008600846FDF774FE08B1FDF74CFE009453
:1026E0000022694605480194FDF747FE002801D005
:1026F000FDF741FE1CBD00000074004018000020E2
:10270000094808B5016841F4001101600068002221
:1027100000F40010009011460B20FEF735FDBDE8D7
:1027200008400B20FEF722BD30380240F0B587B0DC
:1027300014216846FDF79CFD22480024016841F001
:1027400080010160016801F080010591016841F09C
:1027500001010160016801F001010591016841F08A
:1027600008010160016801F008010591016841F06C
:10277000020101600068144F00F002004FF480660F
:102780000590002231463846FEF79CF80F4D802018
:10279000CDE90005694602940D48FDF7A5FF0096B6
:1027A0000126CDE90164694638460394FDF79CFF94
:1027B00030028DE8610069460648FDF795FF07B0D5
:1027C000F0BD000030380240000C02400000111043
:1027D00000000240000402400D4810B50B490160A2
:1027E0000C49416000214FF480428160C0E903122E
:1027F00041618161C1610162FEF7A6F9002803D041
:10280000BDE81040FDF7B7BD10BD0000005400400A
:102810002C000020801A06000C4810B50A490160FF
:102820004FF4E1314160002181600C22C160C0E9B8
:1028300004128161C161FEF7F7FF002803D0BDE8F3
:102840001040FDF798BD10BD004C0040E000002096
:10285000FEE7FEE770477047FEF72EBC70B594B0F8
:1028600034216846FDF704FD14210DA8FDF700FD95
:102870001F480025016841F080510160006800F0A8
:10288000805012901B48016841F44041016000688B
:10289000022400F4404012900120009000040190B6
:1028A0008001CDE906400F260896D820CDE909041D
:1028B0000B9468460C94FEF7D7FD08B172B6FEE79C
:1028C000FEF794FC08B172B6FEE74FF4A050CDE9D4
:1028D0000F504FF480501190CDE90D6405210DA8E3
:1028E000FEF7BCFC002801D072B6FEE714B070BD44
:1028F00040380240007000400248016841F4700115
:102900000160704788ED00E070B504460068016919
:10291000E26821F44051114301612169A068E26934
:1029200008436169114308432168CA6849F20C638E
:102930009A430243CA6020684169A26921F4407148
:102940001143416131492068884202D030498842B0
:1029500002D1FEF72DFD01E0FEF71AFDE26900232A
:10296000192164253226B2F5004F626828D0A0FBF9
:102970000101930F9200FDF743FC0146B0FBF5F017
:102980006FF01802504301EB800006EB0010B0FB23
:10299000F5F000F0F002B1FBF5F002EB0012B1FB34
:1029A000F5F06FF01803584301EB800006EB0010C0
:1029B000B0FBF5F000F00F0021681044886070BD96
:1029C000A0FB010192185B41FDF71AFC0146B0FB28
:1029D000F5F00201B1FBF5F06FF01803584301EB7D
:1029E000800006EBC000B0FBF5F000F0F80002EB51
:1029F0004002B1FBF5F0584301EB800006EBC0004C
:102A0000B0FBF5F000F00700D6E700000010014031
:102A1000001401402DE9F041984617460E46044641
:102A2000069D1DE0681C1BD02DB1FDF751FFA0EBEA
:102A30000800A84214D92068C16821F4D071C1608F
:102A40002068416921F001014161202084F83D00A6
:102A500084F83E00002084F83C000320BDE8F081AB
:102A60002068006836EA000004D00020B842D9D0BF
:102A70000020F3E70120F9E7FEE70907090E002827
:102A800004DB00F1E02080F80014704700F00F0034
:102A900000F1E02080F8141D704702E008C8121F02
:102AA00008C1002AFAD170477047002001E001C137
:102AB000121F002AFBD17047FEF706FBFFF7CEFE80
:102AC000FFF734FEFFF71CFEFFF786FEFFF7A4FEBC
:102AD000FFF7F8FD0648FFF7A1FD0128FAD04FF4F3
:102AE0007A73072203490448FEF704FFFEE700005B
:102AF0002C00002001000020E0000020000610163D
:102B0000000610160000000000000000010203048F
:102B10000607080900000000010203043C2B00081E
:102B200000000020180000009A2A0008542B00081A
:102B30001800002010050000AA2A000800426F6F4C
:102B40007465640001000000100000000000000037
:042B50000024F40069
:04000005080001C529
:00000001FF
